:020000040800F2
:100000005004002045010008DD020008D502000868
:10001000D9020008B1010008F9070008000000003B
:100020000000000000000000000000004D05000876
:10003000B50100080000000009050008610600087D
:100040005F0100085F0100085F0100085F01000810
:100050005F0100085F0100085F0100085F01000800
:100060005F0100085F0100085F0100085F010008F0
:100070005F0100085F0100085F0100085F010008E0
:100080005F0100085F0100085F0100085F010008D0
:100090005F0100085F0100085F0100085F010008C0
:1000A0005F0100085F0100085F0100085F010008B0
:1000B0005F0100085F0100085F0100085F010008A0
:1000C0005F0100085F0100085F0100085F01000890
:1000D0005F0100085F0100085F0100085F01000880
:1000E0005F0100085F0100085F0100085F01000870
:1000F0005F0100085F0100085F0100085F01000860
:100100005F0100085F0100085F0100085F0100084F
:100110005F0100085F010008C50600085F010008D4
:100120005F0100085F0100085F0100085F0100082F
:10013000DFF80CD000F02AF800480047CD0800088E
:10014000500400200648804706480047FEE7FEE7C7
:10015000FEE7FEE7FEE7FEE7FEE7FEE7FEE7FEE777
:10016000650600083101000840EA01039B0703D03F
:1001700009E008C9121F08C0042AFAD203E011F8E6
:10018000013B00F8013B521EF9D27047064C074D67
:1001900006E0E06840F0010394E807009847103457
:1001A000AC42F6D3FFF7C8FF7C0900089C090008A1
:1001B00000BFFEE770472DE9F0410246002500260A
:1001C000002000230024002791F803C00CF00F0545
:1001D00091F803C00CF0100CBCF1000F03D091F8A3
:1001E00002C04CEA050591F800C0BCF1000F31D007
:1001F000146800202BE04FF0010C0CFA00F3B1F86A
:1002000000C00CEA03069E4220D183004FF00F0C81
:100210000CFA03F7BC4305FA03FC4CEA040491F81A
:1002200003C0BCF1280F06D14FF0010C0CFA00FC02
:10023000C2F814C00AE091F803C0BCF1480F05D120
:100240004FF0010C0CFA00FCC2F810C0401C08284A
:10025000D1D31460B1F800C0BCF1FF0F34DD546895
:1002600000202EE000F1080C4FF0010808FA0CF312
:10027000B1F800C00CEA03069E4221D183004FF082
:100280000F0C0CFA03F7BC4305FA03FC4CEA040418
:1002900091F803C0BCF1280F05D100F1080C08FA51
:1002A0000CF8C2F8148091F803C0BCF1480F07D1D4
:1002B00000F1080C4FF0010808FA0CF8C2F81080A1
:1002C000401C0828CED35460BDE8F08141617047DE
:1002D0000161704700BFFEE700BFFEE77047000006
:1002E00070B5002100230F22C47804B3154C246894
:1002F00004F4E064C4F5E064210AC1F10403CA40D7
:10030000447804FA03F184781440214309010E4C27
:100310000678A155047804F01F050124AC40057847
:100320006D11AD0005F1E025C5F8004109E0047844
:1003300004F01F050124AC40044D0678761145F801
:10034000264070BD0CED00E000E400E080E100E03C
:1003500002490143024A1160704700000000FA059B
:100360000CED00E02DE9F041044600270125042CA6
:1003700001DDBDE8F0811E48008842F2107188421C
:1003800001D10A2714E0002006E005EB85014FF6B5
:10039000FF7202EA4105401CA042F6DB14480088C7
:1003A00090FBF5F00A2190FBF1F201FB120087B2FD
:1003B000104830F817100120A0400F4A1278104062
:1003C00008B1002001E00D48C089084304F108018C
:1003D0000A4A32F8111040EA010640F6FF71084857
:1003E000FFF774FF31460648FFF772FF00BFC0E712
:1003F0001C000020380000201F00002020000020EA
:100400000010014008B50121102000F08FF840F6DF
:10041000FF70ADF8000010208DF8030003208DF868
:10042000020069460148FFF7C6FE08BD0010014002
:1004300008B536208DF8000000208DF8010001205D
:100440008DF803006846FFF74BFF08BD00B597B075
:10045000FFF7D8FF00F03CF8FFF7EAFF58221049F9
:1004600001A8FFF781FE002016E0002111E00D4AEF
:1004700032F8102001AB03EBC0035B5C1BB10A4BED
:1004800033F8113000E000231A43064B23F8102004
:10049000491C0829EBDB401C0B28E6DB17B000BD2C
:1004A00024090008380000202000002042F21071CA
:1004B000884202DB024A118001E00149088070474E
:1004C0001C00002001490870704700001F00002038
:1004D0000EB50121102000F019F84720ADF80000FA
:1004E00040F2E730ADF804006946064800F032F902
:1004F00001221146034800F023F90121014800F0D0
:1005000002F90EBD001000407047000029B1064AF4
:10051000D2690243044BDA6104E0034AD2698243A0
:10052000014BDA61704700000010024029B1064A11
:1005300092690243044B9A6104E0034A9269824340
:10054000014B9A617047000000100240704710B5DF
:1005500000F002F810BD00000CB5002001900090E2
:100560003348006840F480303149086000BF3048AB
:10057000006800F4003000900198401C0190009841
:1005800018B90198B0F5A06FF1D12948006800F4BE
:10059000003010B10120009001E000200090009890
:1005A000012843D12348006840F010002149086029
:1005B0000846006820F0030008600846006840F024
:1005C000020008601A4840681949486008464068B7
:1005D00048600846406840F48060486008464068CB
:1005E00020F47C1048600846406840F4E8104860F9
:1005F0000846006840F08070086000BF0C48006842
:1006000000F000700028F9D00948406820F003008D
:10061000074948600846406840F00200486000BF53
:100620000348406800F00C000828F9D10CBD000018
:100630000010024000200240042808D14FF0E021C1
:10064000096941F004014FF0E022116107E04FF029
:10065000E021096921F004014FF0E02211617047A7
:100660007047000010B51348006840F001001149C0
:10067000086008464068104908400E49486008462E
:1006800000680E4908400B4908600846006820F4DD
:10069000802008600846406820F4FE0048604FF45F
:1006A0001F008860FFF753FF4FF0006004490860A7
:1006B00010BD0000001002400000FFF8FFFFF6FE32
:1006C00008ED00E010B501210B4800F028F890B1CA
:1006D0000A4909784C1CE11704EB91718910A4EBCD
:1006E0008101C9B2054A11700846FFF73BFE01219E
:1006F000014800F005F810BD001000401E00002069
:10070000CA430282704721B1028842F0010202808E
:1007100004E002884FF6FE731A400280704730B53D
:100720000246002000230024158A05EA010395896A
:1007300005EA010413B10CB1012000E0002030BD36
:100740001AB183890B43838102E083898B438381C0
:1007500070470000002202881D4B98420ED01D4BAE
:1007600098420BD0B0F1804F08D01B4B984205D077
:100770001A4B984202D01A4B984204D14FF68F730D
:100780001A404B881A43174B984207D0164B984291
:1007900004D04FF6FF431A40CB881A4302808B885F
:1007A00083850B8803850A4B98420BD0094B9842EE
:1007B00008D00E4B984205D00D4B984202D00D4BFD
:1007C000984201D10B7A038601238382704700008F
:1007D000002C0140003401400004004000080040AB
:1007E000000C004000100040001400400040014098
:1007F000004401400048014000BFFEE702E008C895
:10080000121F08C1002AFAD170477047002001E08A
:1008100001C1121F002AFBD17047000010B56FF014
:100820000400FFF709FF0A4800680A49B0FBF1F02D
:10083000094908700846007800EB4001C1EBC01080
:100840004FF6FF7101EAC0000449088010BD0000A6
:100850000000002000127A00180000201A0000207A
:100860000146114A12884A434FF0E0235A610022A0
:100870009A611A46126942F001021A6100BF4FF0F4
:10088000E022106900F001021AB100F48032002A5F
:10089000F5D04FF0E022126922F001024FF0E02380
:1008A0001A6100229A6170471A00002010B50446B0
:1008B00005E04FF47A70FFF7D3FFA4F57A74B4F52E
:1008C0007A7FF6D8A0B2FFF7CBFF10BD4FF4A0603F
:1008D000FFF73EFDFFF7A2FFFFF7B8FD40F2D24061
:1008E000FFF7E4FD0A20FFF7EDFD18E04FF4FA7082
:1008F000FFF7DCFF4FF4FA70FFF7D8FF08480068F5
:10090000401C07490860098888B2FFF7CFFD0448FA
:100910000068B0F57A7F02D1002001490860E5E760
:100920001400002000000000000001000100000190
:1009300001010100000001000001000000000000B2
:1009400001010000010000010100000000010000A1
:100950000100000000010000000000000000000194
:100960000101010000000000000000000000000084
:100970000100000001010101010100009C090008C3
:100980000000002038000000FC070008D40900081F
:1009900038000020180400000C08000800A24A04D7
:1009A000000000000000000001020304060708091F
:1009B0000000000000000000000000000100020034
:1009C0000400080010002000400080000001000228
:0409D0000004000817
:0400000508000131BD
:00000001FF
